:100000000C945D000C9485000C9485000C94850084
:100010000C9485000C9485000C9485000C9485004C
:100020000C9485000C9485000C9485000C9485003C
:100030000C9485000C9485000C9485000C9485002C
:100040000C9493030C9485000C9403040C94DD032E
:100050000C9485000C9485000C9485000C9485000C
:100060000C9485000C9485000000000024002700FB
:100070002A0000000000250028002B0004040404CE
:100080000404040402020202020203030303030342
:10009000010204081020408001020408102001021F
:1000A00004081020000000080002010000030407FB
:1000B0000000000000000000350411241FBECFEF37
:1000C000D8E0DEBFCDBF11E0A0E0B1E0E8E4F9E1A7
:1000D00002C005900D92A43DB107D9F722E0A4ED2E
:1000E000B1E001C01D92A23BB207E1F710E0CDE5FF
:1000F000D0E004C02197FE010E940E09CC35D10743
:10010000C9F70E948A040C94A20C0C94000090E0A1
:10011000FC01EC55FF4F2491FC01E057FF4F349157
:10012000FC01E458FF4FE491EE2309F43CC0222384
:1001300039F1233091F038F42130A9F0223001F563
:1001400084B58F7D12C0273091F02830A1F0243083
:10015000B9F4809180008F7D03C0809180008F77FB
:10016000809380000DC084B58F7784BD09C08091D5
:10017000B0008F7703C08091B0008F7D8093B00076
:10018000F0E0EE0FFF1FEE58FF4FA591B4919FB71F
:10019000F894611104C08C913095382302C0EC9121
:1001A0003E2B3C939FBF08953FB7F8948091010286
:1001B00090910202A0910302B091040226B5A89B7F
:1001C00005C02F3F19F00196A11DB11D3FBFBA2FE9
:1001D000A92F982F8827820F911DA11DB11DBC0149
:1001E000CD0142E0660F771F881F991F4A95D1F70E
:1001F00008958F929F92AF92BF92CF92DF92EF922B
:10020000FF920E94D4004B015C018AE0C82ED12CE1
:10021000E12CF12C0E94D400DC01CB018819990952
:10022000AA09BB09883E9340A105B10598F321E0D6
:10023000C21AD108E108F10888EE880E83E0981E02
:10024000A11CB11CC114D104E104F10419F7FF9001
:10025000EF90DF90CF90BF90AF909F908F900895D8
:100260002FB7F8946091FD017091FE018091FF011C
:10027000909100022FBF0895CF92DF92EF92FF92EC
:100280000F931F93CF93DF936C017A018B01C0E032
:10029000D0E0CE15DF0581F0D8016D918D01D6013A
:1002A000ED91FC910190F081E02DC6010995892B1B
:1002B00011F02196EECF7E01C701DF91CF911F9102
:1002C0000F91FF90EF90DF90CF900895089580E018
:1002D00090E00895FC01538D448D252F30E0842F4C
:1002E00090E0821B930B541710F0CF96089501975E
:1002F0000895FC01918D828D981761F0828DDF0148
:10030000A80FB11D5D968C91928D9F5F9F73928F08
:1003100090E008958FEF9FEF0895FC01918D828DFD
:10032000981731F0828DE80FF11D858D90E00895CA
:100330008FEF9FEF0895FC01918D228D892F90E022
:10034000805C9F4F821B91098F739927089585E0E8
:1003500092E00E949B0121E0892B09F420E0822F8A
:100360000895FC01848DDF01A80FB11DA35ABF4F72
:100370002C91848D90E001968F739927848FA689A4
:10038000B7892C93A089B1898C91837080648C93F8
:10039000938D848D981306C00288F389E02D8081A7
:1003A0008F7D80830895EF92FF920F931F93CF93D9
:1003B000DF93EC0181E0888F9B8D8C8D981305C0B5
:1003C000E889F989808185FD26C0F62E0B8D10E025
:1003D0000F5F1F4F0F731127E02E8C8DE8120CC09A
:1003E0000FB607FCFACFE889F989808185FFF5CF40
:1003F000CE010E94B101F1CF8B8DFE01E80FF11DFE
:10040000E35AFF4FF0829FB7F8940B8FEA89FB897C
:10041000808180620AC09FB7F894EE89FF8960836B
:10042000E889F98980818370806480839FBF81E03F
:1004300090E0DF91CF911F910F91FF90EF90089581
:10044000CF93DF93EC01888D8823C9F0EA89FB897B
:10045000808185FD05C0A889B9898C9186FD0FC072
:100460000FB607FCF5CF808185FFF2CFA889B98947
:100470008C9185FFEDCFCE010E94B101E7CFDF91D6
:10048000CF91089580E090E0892B29F00E94A70188
:1004900081110C940000089542E050E06AE171E09F
:1004A00085E092E00C943C01CF93DF93009779F0C4
:1004B000FC0101900020E9F73197AF01481B590B6F
:1004C000BC0185E092E00E943C01EC0102C0C0E06A
:1004D000D0E00E944C028C0F9D1FDF91CF910895B8
:1004E000CF93DF93FC01448155816081718185E068
:1004F00092E00E943C01EC010E944C028C0F9D1F77
:10050000DF91CF910895CF92DF92EF92FF920F93F8
:100510001F93CF93DF93EC010E943001C090E40160
:10052000D090E501E090E601F090E701DC01CB011D
:100530008C199D09AE09BF090091A2021091A30276
:100540002091A4023091A50280179107A207B3075A
:1005500070F10E943001DF93CF93DC01CB018C1945
:100560009D09AE09BF09BF93AF939F938F938DE110
:1005700091E09F938F9384ED91E09F938F930E94DE
:10058000EF0984ED91E00E9454020E9430016093D3
:10059000E4017093E5018093E6019093E7018DB744
:1005A0009EB70A960FB6F8949EBF0FBE8DBFDF911F
:1005B000CF911F910F91FF90EF90DF90CF90089512
:1005C000CF93DF93EC0188819981009711F00E940D
:1005D000A907198218821D821C821B821A82DF9150
:1005E000CF9108950E94DA090F931F93CF93DF9361
:1005F000EC0188819981009729F02A813B81261797
:10060000370788F48B016F5F7F4F0E9414090097B2
:1006100061F0998388831B830A832C813D81232B7E
:1006200011F4FC01108281E001C080E0DF91CF91E4
:100630001F910F9108950F931F93CF93DF93EC01B8
:100640000C811D810D5F1F4FB8010E94F4028823A9
:1006500069F0288139818C819D8161E371E0820F8D
:10066000931F0E94E8091D830C8303C0CE010E94E2
:10067000E002CE01DF91CF911F910F910895EF928B
:10068000FF920F931F93CF93DF93EC01FB01048143
:100690001581E080F180E114F104C9F00115110524
:1006A000C9F08C819D81080F191FB801CE010E94ED
:1006B000F402882361F0288139818C819D81B70102
:1006C000820F931F0E94E8091D830C8303C0CE0193
:1006D0000E94E002CE01DF91CF911F910F91FF9018
:1006E000EF900895EF92FF920F931F93CF93DF93B4
:1006F000EC017B018A01BA010E94F402811104C05D
:10070000CE010E94E00207C01D830C83B7018881DF
:1007100099810E94E809CE01DF91CF911F910F913D
:10072000FF90EF9008951F920F920FB60F92112431
:100730002F933F938F939F93AF93BF938091FD012E
:100740009091FE01A091FF01B09100023091FC0157
:1007500023E0230F2D3720F40196A11DB11D05C004
:1007600026E8230F0296A11DB11D2093FC01809362
:10077000FD019093FE01A093FF01B09300028091D0
:10078000010290910202A0910302B091040201962D
:10079000A11DB11D8093010290930202A093030258
:1007A000B0930402BF91AF919F918F913F912F9190
:1007B0000F900FBE0F901F9018951F920F920FB6BB
:1007C0000F9211242F933F934F935F936F937F93D7
:1007D0008F939F93AF93BF93EF93FF9385E092E046
:1007E0000E94B101FF91EF91BF91AF919F918F91C5
:1007F0007F916F915F914F913F912F910F900FBE1D
:100800000F901F9018951F920F920FB60F92112400
:100810002F938F939F93EF93FF93E0911502F091A5
:1008200016028081E0911B02F0911C0282FD12C031
:10083000908180911E028F5F8F7320911F0282171B
:1008400051F0E0911E02F0E0EB5FFD4F958F809339
:100850001E0201C08081FF91EF919F918F912F9196
:100860000F900FBE0F901F901895E5E0F2E01382F5
:10087000128288EE93E0A0E0B0E084839583A683A3
:10088000B7838CE091E09183808385EC90E095873D
:10089000848784EC90E09787868780EC90E0918B4A
:1008A000808B81EC90E0938B828B82EC90E0958B37
:1008B000848B86EC90E0978B868B118E128E138E34
:1008C000148E80E097E9A9E4B1E08093AA029093A6
:1008D000AB02A093AC02B093AD02A0910001B09125
:1008E000010128EE33E00E9407096093A60270938D
:1008F000A7028093A8029093A90280E69AEEA0E056
:10090000B0E08093A2029093A302A093A402B093BC
:10091000A5020895CF93DF93CDB7DEB7A7970FB6A3
:10092000F894DEBF0FBECDBF789484B5826084BDDD
:1009300084B5816084BD85B5826085BD85B58160E3
:1009400085BD80916E00816080936E001092810061
:10095000809181008260809381008091810081601C
:1009600080938100809180008160809380008091DD
:10097000B10084608093B1008091B0008160809369
:10098000B00080917A00846080937A0080917A0030
:10099000826080937A0080917A00816080937A00EF
:1009A00080917A00806880937A001092C100EDE90E
:1009B000F0E02491E9E8F0E08491882399F090E058
:1009C000880F991FFC01E859FF4FA591B491FC01D4
:1009D000EE58FF4F859194918FB7F894EC91E22BEC
:1009E000EC938FBF60E08DE00E948700E0911502DC
:1009F000F091160282E08083E0911102F0911202E0
:100A00001082E0911302F091140280E18083109231
:100A10001D02E0911902F0911A0286E08083E091B4
:100A20001702F0911802808180618083E0911702A3
:100A3000F0911802808188608083E0911702F09124
:100A40001802808180688083E0911702F09118027B
:100A500080818F7D808384E690E00E948908182F32
:100A600085E690E00E94890890E0982F8827810F02
:100A7000911D813B24E092071CF085E391E005C0C5
:100A80001816190624F086E491E00E94540280EDC5
:100A900092E0909301018093000100910001109178
:100AA0000101780184E690E00E948908081729F086
:100AB000602F84E690E00E94910885E690E00E9415
:100AC0008908F81629F0612F85E690E00E949108C8
:100AD00028EE33E0D8010E9407096093A6027093C4
:100AE000A7028093A8029093A9028091A6029091F8
:100AF000A702A091A802B091A9028B5A9E4F0E9412
:100B000054026091AA027091AB028091AC02909164
:100B1000AD0228EE33E040E050E00E94E508CA0153
:100B2000B9011BA21AA21DA21CA21FA21EA22AE08A
:100B30008E010F5F1F4FA8010E943D08F801019030
:100B40000020E9F73197AF01401B510BB801CE01EE
:100B500082960E9472031A8219821C821B821E8254
:100B60001D8245E050E065E671E0C8010E94720315
:100B7000BE016E5D7F4FC8010E943F030E941B03B0
:100B80000E94700289819A810E94A9078AA19BA173
:100B90000E94A90780910001909101011BA21AA255
:100BA0001DA21CA21FA21EA24AE0B8010E94320888
:100BB000F80101900020E9F73197AF01401B510B7C
:100BC000B801CE0182960E9472031A8219821C8299
:100BD0001B821E821D8249E050E06BE671E0C80175
:100BE0000E947203BE016E5D7F4FC8010E943F03E9
:100BF0000E941B030E94700289819A810E94A907AA
:100C00008AA19BA10E94A907A0910001B0910101B6
:100C100028EE33E00E9407096093A6027093A702B2
:100C20008093A8029093A9020E9430016B017C017D
:100C30006093F8017093F9018093FA019093FB019E
:100C40000E943001DC01CB018C199D09AE09BF095E
:100C500088389341A105B10598F385E791E00E949A
:100C6000540285E8882E81E0982E08EE11E09DE878
:100C7000E92E91E0F92E24E9C22E21E0D22E3DE9A1
:100C8000A32E31E0B32E0E9430014090F801509025
:100C9000F9016090FA017090FB01DC01CB0184192D
:100CA0009509A609B7094090AA025090AB0260903E
:100CB000AC027090AD0284159505A605B70508F441
:100CC000A9C00E9430019F938F937F936F939F924F
:100CD0008F921F930F930E94EF0988EE91E00E947C
:100CE00083028091FB018F938091FA018F93809111
:100CF000F9018F938091F8018F93FF92EF921F93E8
:100D00000F930E94EF0988EE91E00E9483020E94F7
:100D100030014090F8015090F9016090FA01709014
:100D2000FB01DC01CB0184199509A609B709BF9322
:100D3000AF939F938F93DF92CF921F930F930E9455
:100D4000EF0988EE91E00E9483028091AD028F93BB
:100D50008091AC028F938091AB028F938091AA0215
:100D60008F93BF92AF921F930F930E94EF090FB61C
:100D7000F894DEBF0FBECDBF88EE91E00E94540212
:100D80000E9430016093F8017093F9018093FA0199
:100D90009093FB0161E08DE00E9487000E9430018A
:100DA0002B013C018DEA91E00E9454020E94300127
:100DB0002091A6023091A7024091A8025091A90269
:100DC000DC01CB0184199509A609B7092817390751
:100DD0004A075B0728F08DEA91E00E948302E6CF84
:100DE00085EB91E00E9454020E94F90060E08DE0E2
:100DF0000E94870087EC91E00E9483020E943001EC
:100E00006093F8017093F9018093FA019093FB01CC
:100E10000E94F9008CEC91E00E9483020E94420241
:100E200032CF0F931F93CF93DF938230910510F44D
:100E300082E090E0E091B002F091B10220E030E079
:100E4000A0E0B0E0309719F1408151810281138117
:100E500048175907C8F08417950769F4109731F0BF
:100E600012960C93129713961C9327C00093B0020E
:100E70001093B10222C02115310519F04217530712
:100E800018F49A01BD01EF01DF01F801DBCF211554
:100E90003105F9F0281B390B2430310580F48A81A3
:100EA0009B816115710521F0FB019383828304C04E
:100EB0009093B1028093B002FE01329644C0FE01CD
:100EC000E20FF31F819391932250310939832883D4
:100ED0003AC02091AE023091AF02232B41F4209111
:100EE0000401309105013093AF022093AE022091AE
:100EF0000201309103012115310541F42DB73EB7B0
:100F00004091060150910701241B350BE091AE0280
:100F1000F091AF02E217F307A0F42E1B3F0B281746
:100F2000390778F0AC014E5F5F4F2417350748F062
:100F30004E0F5F1F5093AF024093AE028193919387
:100F400002C0E0E0F0E0CF01DF91CF911F910F915F
:100F50000895CF93DF93009709F481C0FC01329785
:100F600013821282A091B002B091B102109781F465
:100F700020813181820F931F2091AE023091AF0208
:100F80002817390751F5F093AF02E093AE0267C01E
:100F9000ED0120E030E0CE17DF0740F44A815B81AD
:100FA0009E0141155105F1F0EA01F5CFD383C283CB
:100FB00040815181840F951FC817D90759F4888142
:100FC0009981840F951F0296918380838A819B81EA
:100FD000938382832115310529F4F093B102E093C4
:100FE000B0023DC0E901FB83EA8349915991C40FE6
:100FF000D51FEC17FD0761F480819181840F951F47
:101000000296E90199838883828193819B838A83F5
:10101000E0E0F0E012968D919C911397009719F003
:10102000FD01DC01F7CF8D919C9111979D012E5F01
:101030003F4F820F931F2091AE023091AF022817CD
:10104000390769F4309729F41092B1021092B00276
:1010500002C013821282B093AF02A093AE02DF915E
:10106000CF910895BB274A3031F4992322F4BDE291
:10107000909581959F4F0C946008BB27FA01A62F8D
:101080006217710581059105330B30FB66F0AA27C5
:10109000660F771F881F991FAA1FA21710F0A21BA7
:1010A00063953850A9F7A05DAA3308F0A95DA19314
:1010B00036F7B111B1931082CA010C947908BB279D
:1010C000FB015527AA27880F991FAA1FA41710F004
:1010D000A41B83955051B9F7A05DAA3308F0A95D10
:1010E000A193009779F7B111B1931192CB010C94B0
:1010F0007908DC01FC01672F71917723E1F73297C2
:1011000004C07C916D9370836291AE17BF07C8F3E2
:101110000895F999FECF92BD81BDF89A992780B5BF
:101120000895262FF999FECF1FBA92BD81BD20BD2B
:101130000FB6F894FA9AF99A0FBE019608952F9275
:101140003F924F925F926F927F928F929F92AF9257
:10115000BF92CF92DF92EF92FF920F931F93CF93A4
:10116000DF93CDB7DEB7CA1BDB0B0FB6F894DEBF3B
:101170000FBECDBF09942A88398848885F846E8461
:101180007D848C849B84AA84B984C884DF80EE80AB
:10119000FD800C811B81AA81B981CE0FD11D0FB6B4
:1011A000F894DEBF0FBECDBFED010895A29FB00140
:1011B000B39FC001A39F700D811D1124911DB29F8B
:1011C000700D811D1124911D0895A1E21A2EAA1BF4
:1011D000BB1BFD010DC0AA1FBB1FEE1FFF1FA217E7
:1011E000B307E407F50720F0A21BB30BE40BF50BE4
:1011F000661F771F881F991F1A9469F7609570956D
:10120000809590959B01AC01BD01CF0108950E948E
:10121000D608B7FF0895821B930B0895EE0FFF1FAA
:101220000590F491E02D0994A0E0B0E0EAE1F9E046
:101230000C94A308EC01009721F4CB010E94110744
:10124000B4C0FC01E60FF71F9C0122503109E217E0
:10125000F30708F4A8C0D9010D911C911197061746
:101260001707B0F00530110508F49BC0C8010497BA
:101270008617970708F495C002501109061B170B33
:10128000019311936D937C93CF010E94A90789C0AC
:101290005B01A01AB10A4C01800E911EA091B00210
:1012A000B091B102612C712CE12CF12C109709F452
:1012B00046C08D919C911197A815B905B1F56C01A7
:1012C00042E0C40ED11CCA14DB0478F14C018A1828
:1012D0009B08640142E0C40ED11C1296BC90129788
:1012E0001396AC91B5E0CB16D10440F0B282A38343
:1012F00091828082D9016D937C9309C00E5F1F4F4C
:10130000800F911FF90191838083EB2DFA2FE11457
:10131000F10431F0D7011396FC93EE93129741C07C
:10132000F093B102E093B0023CC06816790608F46D
:101330003C017D0112960D90BC91A02DB7CF8091FC
:10134000AE029091AF0288169906E1F46616770610
:10135000C8F48091020190910301009741F48DB788
:101360009EB74091060150910701841B950BE81729
:10137000F907C8F4F093AF02E093AE02F90171836C
:1013800060830FC0CB010E9411077C01009759F0C8
:10139000A801BE010E94DF09CE010E94A907C70172
:1013A00004C0CE0102C080E090E0CDB7DEB7EEE031
:1013B0000C94BF0881E090E0F8940C94A20CFB011F
:1013C000DC0102C001900D9241505040D8F70895C1
:1013D000FB01DC0101900D920020E1F70895AEE0E1
:1013E000B0E0E5EFF9E00C94AD080D891E8986E0C8
:1013F0008C831A8309838FEF9FE79E838D83AE01D1
:10140000475E5F4F6F89788DCE0101960E94110A69
:10141000EF81F885E00FF11F10822E96E4E00C9426
:10142000C908ABE0B0E0E7E1FAE00C949F086C017A
:101430007B018A01FC0117821682838181FFCCC166
:10144000CE0101963C01F6019381F70193FD859150
:1014500093FF81917F01882309F4BAC1853239F461
:1014600093FD859193FF81917F01853229F4B60127
:1014700090E00E94080CE7CF912C212C312CFFE149
:10148000F315D8F08B3279F038F4803279F083326A
:10149000A1F4232D20611DC08D3261F0803369F4E9
:1014A000232D216016C0832D8260382EE32DE46049
:1014B0003E2E2AC0F32DF8601DC037FC2DC020ED54
:1014C000280F2A3040F08E32B9F436FC81C1232D2A
:1014D0002064322E19C036FE06C08AE0989E200D88
:1014E0001124922E11C0EAE02E9E200D1124222EEE
:1014F000F32DF0623F2E08C08C3621F4832D8068D6
:10150000382E02C0883641F4F70193FD859193FF90
:1015100081917F018111B3CF982F9F7D9554933096
:1015200028F40C5F1F4F9FE399830DC0833631F081
:10153000833771F0833509F059C021C0F8018081EB
:1015400089830E5F1F4F88248394912C530113C00D
:101550002801F2E04F0E511CF801A080B18036FE48
:1015600003C0692D70E002C06FEF7FEFC5010E94DC
:10157000FD0B4C018201F32DFF773F2E16C0280191
:1015800022E0420E511CF801A080B18036FE03C05B
:10159000692D70E002C06FEF7FEFC5010E94F20B72
:1015A0004C01F32DF0683F2E820133FC1BC0822DCD
:1015B00090E088169906B0F4B60180E290E00E94AF
:1015C000080C2A94F4CFF50137FC859137FE819100
:1015D0005F01B60190E00E94080C21102A9421E0DE
:1015E000821A91088114910471F7E8C0843611F0D1
:1015F000893641F5F80137FE07C06081718182812B
:1016000093810C5F1F4F08C060817181072E000C11
:10161000880B990B0E5F1F4FF32DFF763F2E97FF20
:1016200009C090958095709561957F4F8F4F9F4F22
:10163000F0683F2E2AE030E0A3010E94440C882E7F
:10164000861845C0853731F4232D2F7EB22E2AE02F
:1016500030E025C0932D997FB92E8F36C1F018F454
:10166000883579F0B5C0803719F0883721F0B0C0DF
:10167000E92FE061BE2EB4FE0DC0FB2DF460BF2E3D
:1016800009C034FE0AC0292F2660B22E06C028E009
:1016900030E005C020E130E002C020E132E0F80196
:1016A000B7FE07C060817181828193810C5F1F4FFB
:1016B00006C06081718180E090E00E5F1F4FA30142
:1016C0000E94440C882E8618FB2DFF773F2E36FE95
:1016D0000DC0232D2E7FA22E891458F434FE0BC08A
:1016E00032FC09C0832D8E7EA82E05C0B82CA32CF9
:1016F00003C0B82C01C0B92CA4FE0FC0FE01E80D38
:10170000F11D8081803321F49A2D997EA92E09C084
:10171000A2FE06C0B394B39404C08A2D867809F063
:10172000B394A3FC11C0A0FE06C0B21488F4280C28
:10173000922C9B180EC0B21460F4B60180E290E0C7
:101740000E94080CB394F7CFB21418F42B1802C0FF
:10175000982C212CA4FE10C0B60180E390E00E94DA
:10176000080CA2FE17C0A1FC03C088E790E002C0ED
:1017700088E590E0B6010CC08A2D867859F0A1FE6C
:1017800002C08BE201C080E2A7FC8DE2B60190E0CE
:101790000E94080C891438F4B60180E390E00E949E
:1017A000080C9A94F7CF8A94F301E80DF11D80811B
:1017B000B60190E00E94080C8110F5CF222009F4B8
:1017C00042CEB60180E290E00E94080C2A94F6CF47
:1017D000F6018681978102C08FEF9FEF2B96E2E1A1
:1017E0000C94BB08FC010590615070400110D8F7C3
:1017F000809590958E0F9F1F0895FC016150704059
:1018000001900110D8F7809590958E0F9F1F089535
:101810000F931F93CF93DF93FB01238121FD03C01F
:101820008FEF9FEF2CC022FF16C046815781248185
:1018300035814217530744F4A081B1819D012F5F88
:101840003F4F318320838C93268137812F5F3F4F19
:101850003783268314C08B01EC01FB010084F185E2
:10186000E02D0995892BE1F6D80116968D919C9172
:101870001797019617969C938E931697CE01DF913A
:10188000CF911F910F910895FA01AA27283051F1A5
:10189000203181F1E8946F936E7F6E5F7F4F8F4FA1
:1018A0009F4FAF4FB1E03ED0B4E03CD0670F781F00
:1018B000891F9A1FA11D680F791F8A1F911DA11DE5
:1018C0006A0F711D811D911DA11D20D009F468941E
:1018D0003F912AE0269F11243019305D3193DEF6C6
:1018E000CF010895462F4770405D4193B3E00FD07C
:1018F000C9F7F6CF462F4F70405D4A3318F0495D67
:1019000031FD4052419302D0A9F7EACFB4E0A69549
:101910009795879577956795BA95C9F7009761056B
:10192000710508959B01AC010A2E069457954795C1
:1019300037952795BA95C9F7620F731F841F951FB6
:08194000A01D0895F894FFCFEB
:10194800D0020000B202800000000000D3013C0178
:101958006A0120029B0179018D010D0A005265661A
:1019680072657368207469636B20256C7520257314
:1019780000736563004772656174657220746861FD
:101988006E204D4158004C657373207468616E2059
:101998007A65726F004163746976652052756E745A
:1019A800696D65200054544C3A200052756E746974
:1019B8006D653A2000446F6E6520776974682073FE
:1019C80065747570006D282920256C7500706D2070
:1019D800256C75006D61746820256C750074746CD5
:1019E8004D696C6C6953656320256C750052756E82
:1019F8006E696E6700446F6E65207769746820525F
:101A0800756E74696D650053746F700053746F70F0
:041A18007065640091
:107E0000112484B714BE81FFF0D085E080938100F7
:107E100082E08093C00088E18093C10086E0809377
:107E2000C20080E18093C4008EE0C9D0259A86E02C
:107E300020E33CEF91E0309385002093840096BBD3
:107E4000B09BFECF1D9AA8958150A9F7CC24DD24C4
:107E500088248394B5E0AB2EA1E19A2EF3E0BF2EE7
:107E6000A2D0813461F49FD0082FAFD0023811F036
:107E7000013811F484E001C083E08DD089C08234E0
:107E800011F484E103C0853419F485E0A6D080C0E4
:107E9000853579F488D0E82EFF2485D0082F10E0AE
:107EA000102F00270E291F29000F111F8ED06801E7
:107EB0006FC0863521F484E090D080E0DECF843638
:107EC00009F040C070D06FD0082F6DD080E0C81688
:107ED00080E7D80618F4F601B7BEE895C0E0D1E017
:107EE00062D089930C17E1F7F0E0CF16F0E7DF06D8
:107EF00018F0F601B7BEE89568D007B600FCFDCFD4
:107F0000A601A0E0B1E02C9130E011968C91119780
:107F100090E0982F8827822B932B1296FA010C0160
:107F200087BEE89511244E5F5F4FF1E0A038BF0790
:107F300051F7F601A7BEE89507B600FCFDCF97BE46
:107F4000E89526C08437B1F42ED02DD0F82E2BD052
:107F50003CD0F601EF2C8F010F5F1F4F84911BD097
:107F6000EA94F801C1F70894C11CD11CFA94CF0C13
:107F7000D11C0EC0853739F428D08EE10CD085E9AC
:107F80000AD08FE07ACF813511F488E018D01DD067
:107F900080E101D065CF982F8091C00085FFFCCF94
:107FA0009093C60008958091C00087FFFCCF809118
:107FB000C00084FD01C0A8958091C6000895E0E648
:107FC000F0E098E1908380830895EDDF803219F02E
:107FD00088E0F5DFFFCF84E1DECF1F93182FE3DFCA
:107FE0001150E9F7F2DF1F91089580E0E8DFEE27F6
:047FF000FF270994CA
:027FFE00040479
:0400000300007E007B
:00000001FF
